:020000040800F2
:100000000050002031930008FD8A0008058B00088D
:100010000D8B0008158B00081D8B000800000000E8
:10002000000000000000000000000000258B000818
:10003000318B0008000000003D8B0008498B000850
:100040007993000879930008799300087993000860
:100050007993000879930008799300087993000850
:100060007993000879930008799300087993000840
:1000700079930008558B000879930008799300085C
:100080007993000879930008799300087993000820
:100090007993000879930008799300087993000810
:1000A000799300087993000879930008698B000818
:1000B00079930008799300087993000879930008F0
:1000C00079930008799300087993000879930008E0
:1000D00079930008799300087993000879930008D0
:1000E00079930008799300087993000800000000D4
:1000F0000000000000000000000000000000000000
:0C01000000000000000000005FF808F1A3
:10010C0010B5054C237833B9044B13B10448AFF345
:10011C0000800123237010BD60000020000000004F
:10012C0080F0000808B5034B1BB103490348AFF33B
:10013C00008008BD000000006400002080F0000872
:10014C00034613F8012B002AFBD1181A013870470B
:10015C0081F0004102E000BF83F0004330B54FEA6C
:10016C0041044FEA430594EA050F08BF90EA020FD9
:10017C001FBF54EA000C55EA020C7FEA645C7FEA6C
:10018C00655C00F0E2804FEA5454D4EB5555B8BF8F
:10019C006D420CDD2C4480EA020281EA030382EA00
:1001AC00000083EA010180EA020281EA0303362D92
:1001BC0088BF30BD11F0004F4FEA01314FF4801C65
:1001CC004CEA113102D0404261EB410113F0004F77
:1001DC004FEA03334CEA133302D0524263EB43032E
:1001EC0094EA050F00F0A780A4F10104D5F1200ECC
:1001FC000DDB02FA0EFC22FA05F2801841F1000127
:10020C0003FA0EF2801843FA05F359410EE0A5F1FA
:10021C0020050EF1200E012A03FA0EFC28BF4CF02B
:10022C00020C43FA05F3C01851EBE37101F00045E1
:10023C0007D54FF0000EDCF1000C7EEB00006EEBEE
:10024C000101B1F5801F1BD3B1F5001F0CD3490878
:10025C005FEA30004FEA3C0C04F101044FEA4452CF
:10026C0012F5800F80F09A80BCF1004F08BF5FEA56
:10027C00500C50F1000041EB045141EA050130BD36
:10028C005FEA4C0C404141EB0101013C28BFB1F548
:10029C00801FE9D291F0000F04BF01460020B1FA93
:1002AC0081F308BF2033A3F10B03B3F120020CDA66
:1002BC000C3208DD02F1140CC2F10C0201FA0CF044
:1002CC0021FA02F10CE002F11402D8BFC2F1200CA9
:1002DC0001FA02F120FA0CFCDCBF41EA0C0190405F
:1002EC00E41AA2BF01EB0451294330BD6FEA0404A8
:1002FC001F3C1CDA0C340EDC04F11404C4F1200293
:10030C0020FA04F001FA02F340EA030021FA04F3A4
:10031C0045EA030130BDC4F10C04C4F1200220FAFB
:10032C0002F001FA04F340EA0300294630BD21FA39
:10033C0004F0294630BD94F0000F83F4801306BFFF
:10034C0081F480110134013D4EE77FEA645C18BFF3
:10035C007FEA655C29D094EA050F08BF90EA020F8A
:10036C0005D054EA000C04BF1946104630BD91EA82
:10037C00030F1EBF0021002030BD5FEA545C05D185
:10038C004000494128BF41F0004130BD14F58004C4
:10039C003CBF01F5801130BD01F0004545F0FE4138
:1003AC0041F470014FF0000030BD7FEA645C1ABF6D
:1003BC00194610467FEA655C1CBF0B46024650EAA4
:1003CC00013406BF52EA033591EA030F41F40021D0
:1003DC0030BD00BF90F0000F04BF0021704730B556
:1003EC004FF4806404F132044FF000054FF000012B
:1003FC0050E700BF90F0000F04BF0021704730B5EC
:10040C004FF4806404F1320410F0004548BF4042C0
:10041C004FF000013EE700BF42004FEAE2014FEA15
:10042C0031014FEA02701FBF12F07F4393F07F4FF0
:10043C0081F06051704732F07F4208BF704793F0F3
:10044C007F4F04BF41F40021704730B54FF4607406
:10045C0001F0004521F000411CE700BF50EA010209
:10046C0008BF704730B54FF000050AE050EA0102B2
:10047C0008BF704730B511F0004502D5404261EB22
:10048C0041014FF4806404F132045FEA915C3FF463
:10049C00D8AE4FF003025FEADC0C18BF03325FEA00
:1004AC00DC0C18BF033202EBDC02C2F1200300FAB1
:1004BC0003FC20FA02F001FA03FE40EA0E0021FAD6
:1004CC0002F11444BDE600BF70B54FF0FF0C4CF4C4
:1004DC00E06C1CEA11541DBF1CEA135594EA0C0F76
:1004EC0095EA0C0F00F0DEF82C4481EA030621EAB1
:1004FC004C5123EA4C5350EA013518BF52EA0335EC
:10050C0041F4801143F4801338D0A0FB02CE4FF09D
:10051C000005E1FB02E506F00042E0FB03E54FF0CD
:10052C000006E1FB03569CF0000F18BF4EF0010EC5
:10053C00A4F1FF04B6F5007F64F5407404D25FEAC1
:10054C004E0E6D4146EB060642EAC62141EA555174
:10055C004FEAC52040EA5E504FEACE2EB4F1FD0CB6
:10056C0088BFBCF5E06F1ED8BEF1004F08BF5FEA34
:10057C00500E50F1000041EB045170BD06F00046E6
:10058C0046EA010140EA020081EA0301B4EB5C0493
:10059C00C2BFD4EB0C0541EA045170BD41F480118B
:1005AC004FF0000E013C00F3AB8014F1360FDEBFB0
:1005BC00002001F0004170BDC4F10004203C35DA8C
:1005CC000C341BDC04F11404C4F1200500FA05F30F
:1005DC0020FA04F001FA05F240EA020001F00042B0
:1005EC0021F0004110EBD37021FA04F642EB060126
:1005FC005EEA430E08BF20EAD37070BDC4F10C0450
:10060C00C4F1200500FA04F320FA05F001FA04F213
:10061C0040EA020001F0004110EBD37041F10001FF
:10062C005EEA430E08BF20EAD37070BDC4F120050A
:10063C0000FA05F24EEA020E20FA04F301FA05F272
:10064C0043EA020321FA04F001F0004121FA04F21A
:10065C0020EA020000EBD3705EEA430E08BF20EAEA
:10066C00D37070BD94F0000F0FD101F00046400024
:10067C0041EB010111F4801F08BF013CF7D041EAA6
:10068C00060195F0000F18BF704703F000465200AA
:10069C0043EB030313F4801F08BF013DF7D043EA7B
:1006AC000603704794EA0C0F0CEA135518BF95EA31
:1006BC000C0F0CD050EA410618BF52EA4306D1D1B8
:1006CC0081EA030101F000414FF0000070BD50EAD7
:1006DC00410606BF1046194652EA430619D094EA61
:1006EC000C0F02D150EA013613D195EA0C0F05D14B
:1006FC0052EA03361CBF104619460AD181EA03019F
:10070C0001F0004141F0FE4141F470014FF0000056
:10071C0070BD41F0FE4141F4780170BD70B54FF0F1
:10072C00FF0C4CF4E06C1CEA11541DBF1CEA135571
:10073C0094EA0C0F95EA0C0F00F0A7F8A4EB050453
:10074C0081EA030E52EA03354FEA013100F088804A
:10075C004FEA03334FF0805545EA131343EA126313
:10076C004FEA022245EA111545EA10654FEA0026C8
:10077C000EF000419D4208BF964244F1FD0404F581
:10078C00407402D25B084FEA3202B61A65EB0305DD
:10079C005B084FEA32024FF480104FF4002CB6EB9A
:1007AC00020E75EB030E22BFB61A754640EA0C001A
:1007BC005B084FEA3202B6EB020E75EB030E22BF5A
:1007CC00B61A754640EA5C005B084FEA3202B6EB9B
:1007DC00020E75EB030E22BFB61A754640EA9C005A
:1007EC005B084FEA3202B6EB020E75EB030E22BF2A
:1007FC00B61A754640EADC0055EA060E18D04FEAE8
:10080C00051545EA16754FEA06164FEAC30343EA87
:10081C0052734FEAC2025FEA1C1CC0D111F4801F54
:10082C000BD141EA00014FF000004FF0004CB6E74D
:10083C0011F4801F04BF01430020B4F1FD0C88BFEC
:10084C00BCF5E06F3FF6AFAEB5EB030C04BFB6EBF7
:10085C00020C5FEA500C50F1000041EB045170BDEA
:10086C000EF0004E4EEA113114EB5C04C2BFD4EB17
:10087C000C0541EA045170BD41F480114FF0000E9B
:10088C00013C90E645EA060E8DE60CEA135594EA17
:10089C000C0F08BF95EA0C0F3FF43BAF94EA0C0F1A
:1008AC000AD150EA01347FF434AF95EA0C0F7FF48F
:1008BC0025AF104619462CE795EA0C0F06D152EAE3
:1008CC0003353FF4FDAE1046194622E750EA4106C7
:1008DC0018BF52EA43067FF4C5AE50EA41047FF4D8
:1008EC000DAF52EA43057FF4EBAE12E74A0011D28A
:1008FC0012F5001211D20DD56FF47873B3EB62526E
:10090C000ED44FEAC12343F0004343EA505323FA79
:10091C0002F070474FF00000704750EA013002D1EE
:10092C004FF0FF3070474FF00000704780B582B039
:10093C0000AF78600B467B8013463B807B885A1E49
:10094C000A4B1B68DA627B885B089AB2074B1B6800
:10095C009A633B88184608F06DFD044B1B68002217
:10096C009A6300BF0837BD4680BD00BF0807002052
:10097C0080B582B000AF78607B681B7883F0010390
:10098C00DBB2002B06D1A0224FF48E717868FFF7F2
:10099C00CDFF00E000BF0837BD4680BD80B582B0FA
:1009AC0000AF78607B681B7883F00103DBB2002B0F
:1009BC0018D1A0224FF48E717868FFF7B7FF322060
:1009CC0008F038FD3C2240F618317868FFF7AEFF8E
:1009DC00322008F02FFDA02240F28C517868FFF7EE
:1009EC00A5FF00E000BF0837BD4680BD80B483B0D2
:1009FC0000AF78607B689B8B03F00203002B14BF65
:100A0C0001230023DBB218460C37BD4680BC70476F
:100A1C0080B584B000AF78607B68184602F0A0FF08
:100A2C000346FB73FB7B002B1BD07A687B6810336F
:100A3C001946104603F058F80346002B11D07A687B
:100A4C007B6830331946104603F0DCF8034683F01C
:100A5C000103DBB2002B02D0786800F0DEFB01232F
:100A6C0006E0786800F094FC786800F0D6FBFB7B1D
:100A7C0018461037BD4680BD80B483B000AF786097
:100A8C000B46FB70FB78642B01D96423FB707B68ED
:100A9C00FA789A7600BF0C37BD4680BC704780B49C
:100AAC0083B000AF78607B689B8B03F04003002B16
:100ABC0003D07B68B3F8663002E07B68B3F8623031
:100ACC0018460C37BD4680BC704780B483B000AF6D
:100ADC0078607B689B8B03F04003002B03D07B6812
:100AEC00B3F8683002E07B68B3F8643018460C3712
:100AFC00BD4680BC704780B483B000AF78607B6823
:100B0C009B8B03F00103002B02D07B681B8B01E055
:100B1C007B68DB8A18460C37BD4680BC704780B5B5
:100B2C0086B002AF78607B689B8B03F04003002B90
:100B3C0002D07B68663301E07B686233FB607B68C4
:100B4C009B7E1846FB681B881A46FB6802331B8881
:100B5C00009313466422002108F070F803469BB200
:100B6C0018461037BD4680BD80B584B000AF7860A4
:100B7C000B467B807B689B8B03F00103002B28D0FA
:100B8C002A4B1B88FB812A4B1B88BB817868FFF79B
:100B9C002DFF034683F00103DBB2002B0DD0B7F918
:100BAC000E30184608F088F80346FB81B7F90C3074
:100BBC00184608F081F80346BB817B88F989BA890D
:100BCC00184608F061F803467B807B687A881A83A4
:100BDC0027E0184B1B887B81174B1B883B8178685F
:100BEC00FFF704FF034683F00103DBB2002B0DD0AB
:100BFC00B7F90A30184608F05FF803467B81B7F95D
:100C0C000830184608F058F803463B817B887989F0
:100C1C003A89184608F038F803467B807B687A8856
:100C2C00DA8200BF1037BD4680BD00BF42F5000818
:100C3C0044F500083EF5000840F5000880B584B086
:100C4C0000AF78600B467B807B881946786800F093
:100C5C00BBFB0346FB817868FFF7C8FE034683F0B5
:100C6C000103DBB2002B06D0B7F90E30184608F0A2
:100C7C0023F80346FB81FB8918461037BD4680BD1F
:100C8C0090B58DB002AF78600B467B800021786800
:100C9C0000F05CFC0346FB840321786800F056FCF2
:100CAC000346BB840121786800F0E8F803467B8496
:100CBC000121786800F028F903463B847868FFF737
:100CCC0095FE034683F00103DBB2002B1BD0B7F972
:100CDC002630184607F0F0FF0346FB84B7F92430A2
:100CEC00184607F0E9FF0346BB84B7F922301846D3
:100CFC0007F0E2FF03467B84B7F92030184607F073
:100D0C00DBFF03463B847B88798C3A8C184607F0D2
:100D1C00BBFF03467B807B689B8B03F00103002B9E
:100D2C0002D07B683C3301E07B6834333B610023A9
:100D3C00FB833A4B1B88BB837888F98CBA8C3B6954
:100D4C001B881C463B6906331B880093234607F01F
:100D5C004BFF03467B837A8BF98BBB8B0B44D90FF0
:100D6C000B445B109A420CDDBA8BFB8BD31A002B15
:100D7C0000DA03339B105B429AB27B8B13447B8368
:100D8C000AE0BA8BFB8BD31A002B00DA03339B10CF
:100D9C009AB27B8B13447B8300237B7636E07B8B70
:100DAC0019467868FFF74AFF0346FB81FA897B886E
:100DBC009A4201D17B8B2DE0FA897B889A4210D222
:100DCC007B8BFB83FA8BBB8B1344DA0F13445B10C6
:100DDC00FB82FA8A7B8B9A4213D17B8B0133FB8289
:100DEC000FE07B8BBB83FA8BBB8B1344DA0F134462
:100DFC005B10FB82FA8A7B8B9A4202D17B8B013B84
:100E0C00FB82FB8A7B837B7E01337B767B7E132B81
:100E1C00C5D97B8B18462C37BD4690BD3CF50008D8
:100E2C0080B483B000AF78607B689B8B03F00103C8
:100E3C00002B01D0012300E0002318460C37BD46DF
:100E4C0080BC704780B483B000AF78600B46FB70F9
:100E5C007B689B8B23F001039AB27B689A83FB78A7
:100E6C00012B06D17B689B8B43F001039AB27B6804
:100E7C009A8300BF0C37BD4680BC704780B584B0E8
:100E8C0000AF78600B46FB707B689B8B03F0010313
:100E9C00002B02D0194B1B8801E0194B1B88FB81DE
:100EAC00FB7883F00103DBB2002B0AD07868FFF7E4
:100EBC009DFD034683F00103DBB2002B01D001231F
:100ECC0000E00023002B14D0B7F90E30184607F0C1
:100EDC00F3FE0346FB81FA890A4BA3FB0213D908E4
:100EEC000B469B000B445B00D31A9BB2FA89D31AB6
:100EFC00FB81FB8918461037BD4680BD42F50008C2
:100F0C003EF50008CDCCCCCC80B584B000AF786079
:100F1C000B46FB707B689B8B03F00103002B02D00C
:100F2C00194B1B8801E0194B1B88FB81FB7883F064
:100F3C000103DBB2002B0AD07868FFF757FD03469C
:100F4C0083F00103DBB2002B01D0012300E000236E
:100F5C00002B14D0B7F90E30184607F0ADFE03463F
:100F6C00FB81FA890A4BA3FB0213D9080B469B00A1
:100F7C000B445B00D31A9BB2FA89D31AFB81FB8911
:100F8C0018461037BD4680BD44F5000840F50008F2
:100F9C00CDCCCCCC80B485B000AF786039607B68A8
:100FAC009B8B03F00103002B02D07B683C3301E0E8
:100FBC007B683433BB600023FB730CE0FB7B5B0072
:100FCC00BA681A44FB7B5B0039680B4412881A80A0
:100FDC00FB7B0133FB73FB7B032BEFD900BF00BF03
:100FEC001437BD4680BC704780B586B000AFF86042
:100FFC00B9601346FB71FB689B8B03F00103002B5C
:10100C0002D0FB683C3301E0FB6834333B610023C6
:10101C00FB750CE0FB7D5B00BA681A44FB7D5B0042
:10102C0039690B4412881A80FB7D0133FB75FB7DFB
:10103C00032BEFD9FB79002B08D0FA68FB6830330F
:10104C001946104602F0F9FD034600E0012318464C
:10105C001837BD4680BD80B485B000AF786039606C
:10106C000023FB7323E0FB7B5B003A6813441A8874
:10107C00FB7B01335B0039680B441B889A4211D20D
:10108C00FB7B01335B003A6813441B881946FB7BDE
:10109C005B003A6813441B88CB1A7A68B2F860205C
:1010AC00934201DA002306E0FB7B0133FB73FB7BED
:1010BC00022BD8D9012318461437BD4680BC704783
:1010CC0080B584B000AFF860B9601346FB71FB7952
:1010DC00012B06D1BB684A331946F86807F05EF855
:1010EC0005E0BB6844331946F86807F057F8F86810
:1010FC001037BD4680BD80B584B000AF786008461F
:10110C0011461A4603467B800B467B7013463B7098
:10111C007B88DB089BB2DAB27B68DA760023FB7340
:10112C007B78002B03D0FB7B43F00203FB733B78F3
:10113C00002B03D0FB7B43F02003FB733B7E002B87
:10114C0003D0FB7B43F00403FB733B7F002B03D0EA
:10115C00FB7B43F00803FB7397F82030002B03D084
:10116C00FB7B43F01003FB7397F82430002B03D068
:10117C00FB7B43F04003FB7397F82830002B03D024
:10118C00FB7B63F07F03FB73FB7B9AB27B689A83D8
:10119C007B689B8B03F00203002B1AD07B689B8D22
:1011AC0003F00203002B14D17B68DB8A1BB21846B8
:1011BC0007F09CFD03469AB27B68DA827B681B8B36
:1011CC001BB2184607F092FD03469AB27B681A834D
:1011DC001FE07B689B8B03F00203002B19D17B680B
:1011EC009B8D03F00203002B13D07B68DB8A1BB2B0
:1011FC00184607F061FD03469AB27B68DA827B6879
:10120C001B8B1BB2184607F057FD03469AB27B683E
:10121C001A8300BF1037BD4680BD80B485B000AFC7
:10122C0078600023FB7324E0FA7B7B68283233F868
:10123C001220FB7B114689000A44520091B27A6855
:10124C0018335B0013440A469A80FA7B7B682C3275
:10125C0033F81220FB7B114689000A44520091B2EC
:10126C007A681C335B0013440A469A80FB7B01337B
:10127C00FB73FB7B032BD7D97B6840F6B832A3F802
:10128C0044207B684FF4E172A3F846207B684FF44E
:10129C009672A3F848207B684FF49672A3F84A2004
:1012AC007B681422A3F84C207B680022A3F84E2004
:1012BC007B6800221A8600BF1437BD4680BC70477D
:1012CC0080B582B000AF78607B6803F110007B685A
:1012DC002033102219460DF0C1FA0346002B01D120
:1012EC00012315E07A687B6810331946104602F02A
:1012FC0016FC0346002B0AD07B6803F120007B68A8
:10130C001033102219460DF011FB012300E00023CD
:10131C0018460837BD4680BD80B582B000AF7860F6
:10132C0039607B689B8B03F00103002B12D03B6868
:10133C001B689AB27B68A3F84A203B685B689AB238
:10134C007B68A3F84C203B689B689AB27B68A3F837
:10135C004E2011E03B681B689AB27B68A3F84420CE
:10136C003B685B689AB27B68A3F846203B689B6835
:10137C009AB27B68A3F848207A687B6830331946A8
:10138C00104602F05AFC034618460837BD4680BD8D
:10139C0080B483B000AF78607B6800221A617B68F0
:1013AC007D22DA767B68F022DA827B68D2221A837D
:1013BC007B680A229A767B6886229A8300BF0C3758
:1013CC00BD4680BC704700002DE9F04186B002AFED
:1013DC0078600B467B800023FB817B689B8B03F042
:1013EC000103002B02D07B683C3301E07B68343373
:1013FC00BB60BB681B887A889A4212D27C88BB6817
:10140C001B881D460021786800F0A0F80346009365
:10141C0019232A461921204607F010FC0346FB81AC
:10142C0082E0BB6806331B887A889A423AD801233B
:10143C007B7333E07B7B5B00BA6813441B887A8830
:10144C009A4228D27C887B7B03F10043013B5B00F2
:10145C00BA6813441B881D467B7B5B00BA68134437
:10146C001B881E467B7B013BDBB21946786800F07B
:10147C006DF8034698467B7B1946786800F066F851
:10148C0003460093434632462946204607F0D6FBD6
:10149C000346FB8148E07B7B01337B737B7B032B17
:1014AC00C8D941E0BB6802331A88BB6806331B8875
:1014BC009A421DD27C88BB6802331B881D46BB68D0
:1014CC0006331B881E460121786800F03FF803465E
:1014DC0098460321786800F039F803460093434698
:1014EC0032462946204607F07FFB0346FB811BE072
:1014FC007C88BB6802331B881D46134B1B881E4619
:10150C000121786800F022F8034698460321786898
:10151C0000F01CF803460093434632462946204609
:10152C0007F062FB0346FB81B7F90E3040F2E7325D
:10153C000021184607F0A8FB0346FB81FB891846DF
:10154C001037BD46BDE8F0813CF5000880B584B08D
:10155C0000AF78600B46FB700023FB817B689B8B94
:10156C0003F00103002B06D0FA787B682C3233F899
:10157C001230FB8105E0FA787B68283233F81230A0
:10158C00FB817868FFF732FA034683F00103DBB284
:10159C00002B14D0B7F90E30184607F08DFB03461C
:1015AC00FB81FA89084BA3FB0213D9080B469B005D
:1015BC000B445B00D31A9BB2FA89D31AFB81FB89CB
:1015CC0018461037BD4680BDCDCCCCCC80B483B092
:1015DC0000AF78600B46FB707B6808221A707B6842
:1015EC0000225A607B68FA781A707B6800225A6075
:1015FC007B6818460C37BD4680BC704780B483B0FE
:10160C0000AF786039607B681B78DBB21A463B68A8
:10161C0002FB03F31A467B685A6000BF0C37BD46C9
:10162C0080BC704780B582B000AF78600B46FB7011
:10163C007B68FA7811461846FFF7C8FF7B680022D2
:10164C001A727B6800225A727B684FF4C8725A81F6
:10165C007B684FF4FA729A817B6818460837BD464E
:10166C0080BD80B483B000AF78607B6800221A80A4
:10167C007B6800225A807B6800225A607B680A22B1
:10168C009A607B680A22DA607B6800221A617B68A8
:10169C000A225A617B6805229A617B680B229A8325
:1016AC007B6801229A777B6818460C37BD4680BC54
:1016BC007047000080B582B000AF78607B68184638
:1016CC0002F0F6F87B68103300221A605A609A60B8
:1016DC00DA607B68203300221A605A609A60DA6004
:1016EC007B6830332022002118460DF0C7F87B6848
:1016FC000F4A503392E8030083E803007B680D4ADD
:10170C00583392E8030083E803007B686422A3F853
:10171C0060207B68084A6233106818607B68074A4F
:10172C006633106818607B6818460837BD4680BD64
:10173C0098F00008A0F00008A8F00008ACF0000831
:10174C0080B483B000AF78607B68DB7EDB009BB23B
:10175C0018460C37BD4680BC704780B483B000AFD0
:10176C0078607B6818460C37BD4680BC704700001B
:10177C0080B582B000AF78607B68064A1846114687
:10178C00A8231A460DF0D2F87B6818460837BD46D8
:10179C0080BD00BF3CF2000880B483B000AF78601D
:1017AC007B6800221A807B6818460C37BD4680BCCB
:1017BC00704780B483B000AF78600B467B807B6849
:1017CC007A881A8000BF0C37BD4680BC7047000079
:1017DC00F0B583B000AF78607868FFF7BEFF7B6828
:1017EC0004331846FFF7D8FF7B6808331846FFF719
:1017FC00BFFF144A7B681A607B68002283F8B02014
:10180C007B68114AB133106818607B680F4A144624
:10181C0003F1B50C04F1300E654626460FCE286058
:10182C006960AA60EB6010340CF1100C7445F3D1B4
:10183C006246234603CB106051607B6818460C3718
:10184C00BD46F0BDBCF30008E4F20008E8F2000865
:10185C0080B483B000AF7860044A7B681A607B6800
:10186C0018460C37BD4680BC704700BFBCF300085F
:10187C0080B582B000AF78607868FFF7E9FFF0219F
:10188C0078680CF0C1FE7B6818460837BD4680BDF1
:10189C0080B582B000AF78607B6804331846FFF7E0
:1018AC00E0FE044A7B681A607B6818460837BD4620
:1018BC0080BD00BF7CF3000880B483B000AF7860BB
:1018CC00044A7B681A607B6818460C37BD4680BC9E
:1018DC00704700BF7CF3000880B582B000AF786021
:1018EC007868FFF7E9FF242178680CF08DFE7B689F
:1018FC0018460837BD4680BD80B582B000AF786011
:10190C007B681846FFF7C4FF254A7B681A607B6822
:10191C0000229A847B680022DA847B68042283F894
:10192C0028207B68002283F829207B6800225A85B6
:10193C007B682C3308211846FFF748FE7B6834334C
:10194C0008211846FFF742FE7B683C3308211846F5
:10195C00FFF73CFE7B68443308211846FFF736FE40
:10196C007B68002283F84C207B684FF4E162A3F87B
:10197C004E207B684FF44872A3F850207B680522F8
:10198C0083F852207B684FF49672A3F854207B683E
:10199C0044F620629A657B6818460837BD4680BDC0
:1019AC0004F5000880B582B000AF78607B681846FB
:1019BC00FFF76EFF454A7B681A607B68002283F84C
:1019CC0023207B68002283F824207B68002283F884
:1019DC0025207B68012283F826207B68002283F86F
:1019EC0027207B6800221A857B6800225A857B6839
:1019FC0000229A857B6800221A637B6800229A86F3
:101A0C007B6800229A637B68002283F83C207B6809
:101A1C004622DA877B684FF42F72A3F840207B684C
:101A2C000022A3F842207B68443308211846FFF7B4
:101A3C00CDFD7B684C3308211846FFF7C7FD7B684A
:101A4C00543308211846FFF7C1FD7B685C3308212D
:101A5C001846FFF7BBFD7B68643308211846FFF777
:101A6C00B5FD7B68002283F86C207B680022A3F80C
:101A7C006E207B680022A3F870207B68002283F81C
:101A8C0072207B68322283F873207B68502283F8A3
:101A9C0074207B680E4A9A677B684EF66022DA6780
:101AAC007B680D2283F880207B68052283F88120D7
:101ABC007B680122C3F884207B684EF66022C3F851
:101ACC0088207B6818460837BD4680BDCCF30008DB
:101ADC00407E050080B483B000AF78600B46FB708D
:101AEC007B68FA7883F83C2000BF0C37BD4680BC7D
:101AFC00704780B483B000AF78607B6800221A8096
:101B0C007B6800225A807B6818460C37BD4680BC27
:101B1C00704780B582B000AF78607A687B6802331A
:101B2C00194610460CF0DEFC034618460837BD4635
:101B3C0080BD80B483B000AF78607B68B3F90030AF
:101B4C0018460C37BD4680BC704780B483B000AFDC
:101B5C0078607B6801221A707B6818460C37BD468A
:101B6C0080BC704780B582B000AF7860054A7B6856
:101B7C001A607B681846FFF79FFE7B68184608378B
:101B8C00BD4680BD04F5000880B582B000AF78601A
:101B9C007868FFF7E7FF5C2178680CF035FD7B680F
:101BAC0018460837BD4680BD80B582B000AF78605E
:101BBC00054A7B681A607B681846FFF77DFE7B68D8
:101BCC0018460837BD4680BDCCF3000880B582B0FE
:101BDC0000AF78607868FFF7E7FF8C2178680CF02D
:101BEC0013FD7B6818460837BD4680BD80B582B0B2
:101BFC0000AF78607B681846FFF75CFD7B686C3340
:101C0C001846FFF779FE7B68C8331846FFF7CAFE03
:101C1C007B6803F5AA731846FFF7DAFD7B6803F5BA
:101C2C0011731846FFF765FF7B68102283F8482272
:101C3C007B680022C3F84C227B6803F514730A21DD
:101C4C001846FFF7C3FC7B6803F51673104918465A
:101C5C0002F0CCF97B6803F526731846FFF775FF85
:101C6C007B6803F5277308211846FFF7DBFC7B68BC
:101C7C001E2283F8AC227B683C2283F8AD227B6861
:101C8C00072283F8AE227B6818460837BD4680BD14
:101C9C00C006002080B483B000AF786039600F4A72
:101CAC007B681A607B6800225A607B6800221A816C
:101CBC007B680022DA607B6800221A617B68002254
:101CCC005A617B6800229A617B683A685A607B682B
:101CDC0018460C37BD4680BC704700BF60F3000847
:101CEC0080B483B000AF786000BF0C37BD4680BCB9
:101CFC00704780B483B000AF7860002318460C376F
:101D0C00BD4680BC704780B483B000AF786000BF24
:101D1C000C37BD4680BC704780B483B000AF786090
:101D2C00044A7B681A607B6818460C37BD4680BC39
:101D3C00704700BF60F3000880B582B000AF7860D8
:101D4C007868FFF7E9FF1C2178680CF05DFC7B6874
:101D5C0018460837BD4680BD80B582B000AF7860AC
:101D6C0039607B6839681846FFF794FF0A4A7B682C
:101D7C001A607B680022DA617B68002283F82020DD
:101D8C007B6800225A627B6841F288321A857B6834
:101D9C0018460837BD4680BDD0F4000880B582B027
:101DAC0000AF786039607B6839681846FFF772FFBE
:101DBC000D4A7B681A607B6800221A777B680022C8
:101DCC001A627B6800229A847B680022DA847B6822
:101DDC0032221A857B6840F2DC52DA627B68184644
:101DEC000837BD4680BD00BFB4F4000880B582B092
:101DFC0000AF786039607B6839681846FFF74AFF96
:101E0C000C4A7B681A607B6801221A777B68002277
:101E1C0083F82A207B68002283F82B207B68002221
:101E2C00DA627B6800221A637B6818460837BD4665
:101E3C0080BD00BF7CF4000880B582B000AF786034
:101E4C0039607B6839681846FFF724FF0E4A7B68B7
:101E5C001A607B680022DA617B6800221A627B6858
:101E6C00002283F824207B68002283F825207B68DD
:101E7C00002283F826207B6800221A857B6818468E
:101E8C000837BD4680BD00BF60F4000880B582B045
:101E9C0000AF786039607B6839681846FFF7FAFE46
:101EAC00084A7B681A607B680F221A777B680F22BE
:101EBC005A777B6800229A777B6818460837BD46AC
:101ECC0080BD00BF44F4000880B483B000AF7860DC
:101EDC000B46FB707B68FA789A7700BF0C37BD46CF
:101EEC0080BC704780B582B000AF786039607B6889
:101EFC0039681846FFF7CEFE034A7B681A607B6888
:101F0C0018460837BD4680BD28F4000880B582B05D
:101F1C0000AF786039607B6839681846FFF7BAFE05
:101F2C000B4A7B681A607B6800221A777B68022256
:101F3C00DA837B680A221A847B68C8225A847B68FD
:101F4C00044A5A627B6818460837BD4680BD00BFFC
:101F5C000CF40008905F010080B487B000AF78608B
:101F6C000B46FB701346BB7046237B744623FB75F4
:101F7C000023BB75FB785B08DBB2BA789A420DD9AB
:101F8C00BA78FB789A4201D9FB78BB700023FB75B9
:101F9C004623BB75FA78BB78D31ABB70BB78002B81
:101FAC000FD100237B7507E07B7D7A681344BA7DE3
:101FBC001A707B7D01337B757A7DFB789A42F3D363
:101FCC0044E0FA78BB78B2FBF3F33B74FB78BA7855
:101FDC00B3FBF2F101FB02F29B1AFB733B7C5B0837
:101FEC003B750023FB740023BB742BE0BA7C3B7D58
:101FFC009A4205D2BB7C7A681344BA7D1A701EE0F3
:10200C00BB7C7A681344FA7D1A703A7D3B7C13448E
:10201C003B75FA7CFB7B1344DBB2FB7497F91330F2
:10202C00FA7B5208D2B21A44BB789A4207DB3B7D4A
:10203C0001333B75FA7CBB78D31ADBB2FB74BB7CE7
:10204C000133BB74BA7CFB789A42CFD31C37BD46A4
:10205C0080BC704780B483B000AF0023FB8006E0E7
:10206C00FB88074A0021D154FB880133FB80FB8895
:10207C00EF2BF5D900BF00BF0C37BD4680BC7047B5
:10208C007C00002080B582B000AF304803F0A2F88D
:10209C000346FB712E4A2F492E4803F09EFD2C4A15
:1020AC002C492D4803F099FD2A4A2A492B4803F064
:1020BC0094FD284A27492A4803F08FFD254A2549D3
:1020CC00284803F08AFD224A2249274803F085FD5F
:1020DC00244A2049254803F080FD1E4A1D491C480E
:1020EC0003F07BFD002122480AF000FCF023214A7A
:1020FC0004211F480AF000FA00211F480AF0F6F8E4
:10210C001248FFF71DFB0346BB80BB8819461B48D2
:10211C00FFF74FFBFB79012B08D1194B124A1A60C0
:10212C001E221D21104805F0BAFD03E000210E48C7
:10213C00FFF7CAFE124B1A68114B1B681B681B6811
:10214C001046984700BF0837BD4680BD7C01002073
:10215C004C0500202C04002058040020880400208A
:10216C00BC040020E80400201005002030050020ED
:10217C00300600207C00002078060020D4020020CD
:10218C000000002080B582B000AF07F049F902468C
:10219C00964B1B689A428CBF01230023DBB2002BA9
:1021AC0015D007F03DF903466433904A13600221C1
:1021BC008F4807F0E3FD0346FB70FB78012B01D140
:1021CC00642300E0002319468A4806F0E9F98A4B9B
:1021DC001B68002B08D007F023F90246864B1B68BE
:1021EC009A4201D3012300E00023002B3DD0824B07
:1021FC0000221A608148FFF78CFC03461A46804B7C
:10220C0083F848227E4B93F84832002B1ED107F0FE
:10221C0007F903467A4AC2F84C327948FEF700FEB9
:10222C000346012B0CBF01230023DBB2002B1CD077
:10223C0001217448FFF74EFC7048FFF77AFC034607
:10224C009BB219466F4802F001FB0EE06C48FEF79A
:10225C00E7FD0346012B0CBF01230023DBB2002B4F
:10226C0003D000216748FFF735FC07F0D9F8024688
:10227C00654B1B6803F57A739A428CBF01230023CC
:10228C00DBB2002B03D000216048FFF7B7F95C4BA1
:10229C0093F84832002B1DD05D4B1B685D4A93426E
:1022AC0018D05B4B1B685C4A934213D0584B1B688D
:1022BC005A4A93420ED0564B564A1A600021554842
:1022CC00FFF702FE524B1A68514B1B681B681B68C8
:1022DC00104698474E4B1B68184603F08FFC7860ED
:1022EC007B68002B33D04A4B1B687A689A422ED0FD
:1022FC004348FEF795FD0346012B0CBF0123002339
:10230C00DBB2002B04D000213E4802F0C9FA07E0F2
:10231C000021434806F0D2FD4FF0804300225A635F
:10232C00FFF798FE3A4B1A68394B1B681B68083349
:10233C001B6810469847364A7B681360344B1A6802
:10234C00334B1B681B681B68104698474AE0304BA0
:10235C001A682F4B1B681B6804331B681046984780
:10236C0078602B4B1B687A689A4232D07B68002BC2
:10237C0001D1284B7B602248FEF752FD0346012B0E
:10238C000CBF01230023DBB2002B04D000211D481D
:10239C0002F086FA07E00021214806F08FFD4FF08D
:1023AC00804300225A63FFF755FE194B1A68184BED
:1023BC001B681B6808331B6810469847144A7B68D7
:1023CC001360134B1A68124B1B681B681B68104672
:1023DC009847144800F092FB0346002B02D00520CE
:1023EC0007F028F80837BD4680BD00BF78010020F3
:1023FC00000C01401804002074010020C0030020D0
:10240C007C0100204402002070010020CC0300203D
:10241C000000002010050020E80400204C050020DE
:10242C00E8010020D402002080B582B000AF7860B3
:10243C007B681B68094A93420BD106F0F1FF0346F7
:10244C00074A13607B681B685B6B1946054806F0EE
:10245C0049F800BF0837BD4680BD00BF002C0140C5
:10246C0070010020CC03002080B586B000AF7860EE
:10247C007B681B682F4A934257D106F0D1FF386115
:10248C002D4B1B683A69D31AFB602B4A3B691360CE
:10249C003A69FB681344053B284A13602848FEF749
:1024AC00BFFC0346012B0CBF01230023DBB2002B26
:1024BC001FD00023FB82234806F033F80346322B4F
:1024CC00CCBF01230023DBB2002B04D01E4802F04A
:1024DC00A5FB0346FB82FB8A002B07D0FB8ADBB2F1
:1024EC001A4678211948FFF737FD1FE0FFF7B2FDB8
:1024FC001CE01348FEF794FC0346002B0CBF012391
:10250C000023DBB2002B11D01148FFF712FB03465E
:10251C001946104806F0FAFD03467B814FF08042C5
:10252C007B895363FFF796FD00E000BF1837BD466B
:10253C0080BD00BF002C01406C0100207401002004
:10254C007C010020CC03002044020020F400002079
:10255C00C0030020E801002080B586B000AF786091
:10256C007B681B682F4A934257D106F059FF38619C
:10257C002D4B1B683A69D31AFB602B4A3B691360DD
:10258C003A69FB681344053B284A13602848FEF758
:10259C0047FC0346012B0CBF01230023DBB2002BAD
:1025AC001FD00023FB82234805F0BBFF0346322BD0
:1025BC00CCBF01230023DBB2002B04D01E4802F059
:1025CC002DFB0346FB82FB8A002B07D0FB8ADBB278
:1025DC001A4678211948FFF7BFFC1FE0FFF73AFDB8
:1025EC001CE01348FEF71CFC0346002B0CBF012318
:1025FC000023DBB2002B11D01148FFF79AFA0346E7
:10260C001946104806F082FD03467B814FF080424C
:10261C007B895363FFF71EFD00E000BF1837BD46F2
:10262C0080BD00BF002C01406C0100207401002013
:10263C007C010020CC030020440200207C00002000
:10264C00C0030020E801002080B582B002AF15481D
:10265C00FFF7CCFA13491448FFF77EFB11491348D6
:10266C00FFF79CFB0F491248FFF7C0FB0D491148BF
:10267C00FFF7E2FB0B491048FFF748FC09490F48EC
:10268C00FFF704FC07490E48FFF72CFC0C4B00939A
:10269C00084B074A03490B4803F000FF00BFBD4637
:1026AC0080BD00BF7C0100202C04002058040020B9
:1026BC0088040020BC040020E80400201005002041
:1026CC00300500204C05002080B582B000AF78604A
:1026DC00054A7B681A607B681846FFF71DFB7B6810
:1026EC0018460837BD4680BD98F4000880B582B006
:1026FC0000AF78607868FFF7E7FF382178680BF057
:10270C0083FF7B6818460837BD4680BD80B582B014
:10271C0000AF7860054A7B681A607B681846FFF743
:10272C00FBFA7B6818460837BD4680BD28F40008C4
:10273C0080B582B000AF78607868FFF7E7FF1C21A6
:10274C0078680BF061FF7B6818460837BD4680BD82
:10275C0080B582B000AF7860054A7B681A607B68F0
:10276C001846FFF7D9FA7B6818460837BD4680BD76
:10277C0044F4000880B582B000AF78607868FFF749
:10278C00E7FF202178680BF03FFF7B68184608377D
:10279C00BD4680BD80B582B000AF7860054A7B68CD
:1027AC001A607B681846FFF7B7FA7B68184608373B
:1027BC00BD4680BD0CF4000880B582B000AF7860D7
:1027CC007868FFF7E7FF282178680BF01DFF7B681E
:1027DC0018460837BD4680BD80B582B000AF786022
:1027EC00054A7B681A607B681846FFF795FA7B6888
:1027FC0018460837BD4680BD60F4000880B582B02D
:10280C0000AF78607868FFF7E7FF2C2178680BF051
:10281C00FBFE7B6818460837BD4680BD80B582B08C
:10282C0000AF7860054A7B681A607B681846FFF732
:10283C0073FA7B6818460837BD4680BD7CF40008E7
:10284C0080B582B000AF78607868FFF7E7FF34217D
:10285C0078680BF0D9FE7B6818460837BD4680BDFA
:10286C0080B582B000AF7860054A7B681A607B68DF
:10287C001846FFF751FA7B6818460837BD4680BDED
:10288C00B4F4000880B582B000AF78607868FFF7C8
:10289C00E7FF302178680BF0B7FE7B6818460837E5
:1028AC00BD4680BD80B582B000AF7860054A7B68BC
:1028BC001A607B681846FFF72FFA7B6818460837B2
:1028CC00BD4680BDD0F4000880B582B000AF786002
:1028DC007868FFF7E7FF2C2178680BF095FE7B6892
:1028EC0018460837BD4680BD80B582B000AF786011
:1028FC007B6803F5AA731846FEF7AAFF7B68C833FA
:10290C001846FFF751F97B686C331846FFF72AF924
:10291C007B6818460837BD4680BD000080B500AF07
:10292C000E48FFF7D1FE0E48FFF7F0FE0D48FFF7FB
:10293C000FFF0D48FFF72EFF0C48FFF74DFF0C481B
:10294C00FFF76CFF0B48FFF78BFF0B48FFF7AAFF55
:10295C000A48FFF7C9FF00BF80BD00BF4C0500202F
:10296C003005002010050020E8040020BC040020E5
:10297C0088040020580400202C0400207C01002036
:10298C0080B500AFFFF760FE80BD80B500AFFFF7EC
:10299C00C5FF80BD80B582B000AF78600BF08AFBBC
:1029AC0000BF0837BD4680BD80B582B000AF7860EF
:1029BC000BF0D4FB00BF0837BD4680BD80B582B09C
:1029CC0000AF78600B46FB701346BB70BA78FB788F
:1029DC00114618460BF0F4FB00BF0837BD4680BD0E
:1029EC0080B582B000AF78600B46FB70FB78184660
:1029FC000BF016FC00BF0837BD4680BD80B584B017
:102A0C0000AFF8600B467A60FB72FB7A7968184667
:102A1C000BF02EFC00BF1037BD4680BD80B584B0D6
:102A2C0000AFF8607B600B46FB721346BB72B97A41
:102A3C00FB7A7A6818460BF09FFC00BF1037BD4636
:102A4C0080BD80B582B000AF7860084611461A464A
:102A5C000346FB700B46BB7013467B707A78B978D3
:102A6C00FB7818460BF09DFC00BF0837BD4680BDB7
:102A7C0080B582B000AF78600B46FB70FB781846CF
:102A8C000BF0A6FC00BF0837BD4680BD80B582B0F8
:102A9C0000AF7860396038680BF014FC00BF083761
:102AAC00BD4680BD80B582B000AF78600821034878
:102ABC0009F01CFC00BF0837BD4680BD780600201D
:102ACC0080B582B000AF78600821034809F0B0FCF3
:102ADC0000BF0837BD4680BD7806002080B483B0A7
:102AEC0000AF78607B681A88034B1B681A6400BFC0
:102AFC000C37BD4680BC70477806002080B485B08A
:102B0C0000AF78600423FB737B681B881A462B4B41
:102B1C001B68DB6B9A428CBF01230023DBB2002BBA
:102B2C001CD07B681B881A46244B1B68DB6BD31AA2
:102B3C00042B8CBF01230023DBB2002B07D01F4BCF
:102B4C001B68DA6B1D4B1B680432DA6304E01B4B09
:102B5C001B68DA6B0132DA63012329E07B681B887E
:102B6C001A46164B1B68DB6B9A4234BF01230023B9
:102B7C00DBB2002B1BD0114B1B68DB6B7A68128805
:102B8C009B1A042B8CBF01230023DBB2002B07D034
:102B9C000A4B1B68DA6B094B1B68043ADA6304E0D6
:102BAC00064B1B68DA6B013ADA63012300E0002361
:102BBC0018461437BD4680BC704700BF780600200D
:102BCC0080B584B000AF78607868FFF7E3FE786872
:102BDC00FFF7EAFE7B6804331846FFF771FF7B684A
:102BEC0004331846FFF75EFF7B6804330021184658
:102BFC00FEF7DFFD7B6804331846FFF76FFF0023F9
:102C0C00FB730FE0FB7B0133D9B2FB7B1633DB008C
:102C1C007A68134405331A467868FFF7EFFEFB7B9E
:102C2C000133FB73FB7B062BECD900BF00BF1037C5
:102C3C00BD4680BD80B584B000AF78600B46FB709C
:102C4C007B680833FA781146184605F05FFAF8608D
:102C5C00FB68002B05D0FB68002200217868FFF789
:102C6C00DDFE00BF1037BD4680BD80B588B002AF19
:102C7C00F860B96011461A460B46FB711346BB71DE
:102C8C000021F868FFF7ACFE042300220021F8684D
:102C9C00FFF7D7FEBB68B3F9002007F11001002342
:102CAC0000930323F86800F079FD07F1100319462F
:102CBC00F868FFF7EBFE0121F868FFF7D9FEBB7946
:102CCC00002B01D0432300E046231946F868FFF798
:102CDC00CFFE97F82030002B01D0052300E02023F5
:102CEC0000220F21F868FFF7ACFEBB680433B3F980
:102CFC00002007F11001002300930323F86800F073
:102D0C004DFD07F1100301220021F868FFF786FE44
:102D1C000121F868FFF7ACFE032301220721F868B4
:102D2C00FFF78FFEBB680633B3F90030632B03DD6E
:102D3C00BB68063363221A80BB680633B3F90020E4
:102D4C0007F11001002300930223F86800F026FD20
:102D5C0007F110031946F868FFF798FE2521F8686B
:102D6C00FFF786FEBB680833B3F9002007F11001AA
:102D7C00002300930223F86800F010FD07F1100304
:102D8C0001220D21F868FFF749FE0121F868FFF7D1
:102D9C006FFEFB79012B32D1022300220721F86848
:102DAC00FFF74FFEBB680233B3F90030632B03DD32
:102DBC00BB68023363221A80BB680233B3F900206C
:102DCC0007F11001002300930223F86800F0E6FCE1
:102DDC0007F110031946F868FFF758FE2521F8682B
:102DEC00FFF746FE97F82430002B08D0002209216B
:102DFC00F868FFF7E3FD0121F868FFF7F1FD00BF6C
:102E0C001837BD4680BD80B58CB000AFF8607B60D4
:102E1C000B46FB721346BB720021F868FFF7E0FD0E
:102E2C0007F1140300221A605A609A60DA601A746F
:102E3C00FB6803F10800FA7ABB7A1344DBB2013366
:102E4C00DBB2194605F062F9B86207F114031022DF
:102E5C00B96A18460BF01AFDB86AFDF771F903460A
:102E6C0087F82F307B681B78002B09D097F82F3010
:102E7C005A1C87F82F2030333B443A2203F81C2C81
:102E8C0097F82F3030333B44202203F81C2C97F852
:102E9C002F30013307F11402D01897F82F30C3F1FB
:102EAC000F031A4679680BF0F1FC07F1140318466E
:102EBC00FDF746F9034687F8273097F8273087F84F
:102ECC002E300BE097F82E3030333B44202203F8A1
:102EDC001C2C97F82E30013387F82E3097F82E30B3
:102EEC000F2BEFD907F1140301220021F868FFF72B
:102EFC0095FD97F83830002B0CD097F82F30023313
:102F0C00DBB201221946F868FFF758FD0121F86879
:102F1C00FFF766FD00BF3037BD4680BD80B58AB077
:102F2C0002AFF860084611461A460346FB720B4680
:102F3C003B811346FB80FB6803F10802FB7A2733C5
:102F4C00DBB21946104605F0E1F8F861FB69002286
:102F5C000021F868FFF762FD3D21F868FFF788FD56
:102F6C00B7F9082007F11401002300930423F86833
:102F7C0000F014FC07F114031946F868FFF786FDFE
:102F8C00032300220921F868FFF75BFD97F828302E
:102F9C00632B02D9632387F8283097F828301AB2AC
:102FAC0007F11401002300930223F86800F0F6FBEC
:102FBC0007F114031946F868FFF768FD2521F86836
:102FCC00FFF756FD97F83030002B01D0052300E0B9
:102FDC00202300220F21F868FFF733FD072301227D
:102FEC000021F868FFF72DFD2449F868FFF74EFD26
:102FFC00B7F90630224A934203DA4DF6F103FB800F
:10300C0008E0B7F9063042F20F72934202DD42F249
:10301C000F73FB80B7F9062007F11401002300930E
:10302C000523F86800F0BAFB07F114031946F86899
:10303C00FFF72CFD01220B21F868FFF7BFFC1149AB
:10304C00F868FFF723FDBB8DB3F57A7F02D340F20E
:10305C00E733BB85B7F92C2007F11401002300934B
:10306C000323F86800F09AFB07F114031946F8687B
:10307C00FFF70CFD00BF2037BD4680BD20F30008D4
:10308C00F1D8FFFF24F3000880B58AB002AFF860D6
:10309C00B9601346FB71FB6808331521184605F01F
:1030AC0035F8F861FB6900220021F868FFF7B6FCDF
:1030BC00FB6803F10802FB792733DBB21946104693
:1030CC0005F024F8F861FB6901220021F868FFF78C
:1030DC00A5FC0E49F868FFF7D9FCFB795B00BA68D0
:1030EC0013441B881AB207F1140100230093042324
:1030FC00F86800F053FB07F114031946F868FFF762
:10310C00C5FC00BF2037BD4680BD00BF28F30008BA
:10311C0080B588B002AFF860084611461A460346DF
:10312C007B810B463B811346FB80B7F90A2007F1E4
:10313C001001002300930423F86800F02FFB07F123
:10314C00100300220021F868FFF768FC0121F868E1
:10315C00FFF78EFC97F82030002B01D0432300E0C2
:10316C0046231946F868FFF783FC00220821F8680B
:10317C00FFF724FC5B21F868FFF77AFCB7F906200F
:10318C0007F11001002300930423F86800F006FBFC
:10319C0007F110031946F868FFF778FC5D21F86811
:1031AC00FFF766FC00220F21F868FFF707FC97F881
:1031BC002830002B01D0212300E020231946F86889
:1031CC00FFF756FCB7F9082007F110010023009314
:1031DC000623F86800F0E2FA07F11003012200213F
:1031EC00F868FFF71BFC032301220821F868FFF79E
:1031FC0028FC97F824301AB207F110010023009331
:10320C000323F86800F0CAFA07F110031946F868AE
:10321C00FFF73CFC2521F868FFF72AFC97F82C30C7
:10322C00002B04D001220F21F86800F055FA00BFE2
:10323C001837BD4680BD80B58AB002AFF86008462D
:10324C0011461A460346FB720B463B811346FB8024
:10325C00FB6808332621184604F058FFF861FB6917
:10326C0000220021F868FFF7D9FB2021F868FFF74E
:10327C00FFFBFB6803F10802FB7A012B01D116233B
:10328C0000E017231946104604F040FFF861F96975
:10329C00F868FFF7FBFBB7F9082007F114010023CE
:1032AC0000930323F86800F079FA07F11403012264
:1032BC000021F868FFF7B2FB0121F868FFF7D8FB93
:1032CC0097F82830002B01D0432300E04623194601
:1032DC00F868FFF7CDFBB7F9062007F114010023BE
:1032EC0000930423F86800F059FA01220721F868CA
:1032FC00FFF764FB5B21F868FFF7BAFB07F11403D7
:10330C001946F868FFF7C2FB5D21F868FFF7B0FBC0
:10331C0001220F21F868FFF751FB97F82C30002B96
:10332C0001D02A2300E020231946F868FFF7A0FB00
:10333C0000BF2037BD4680BD80B586B000AF786039
:10334C000B46FB701346BB707B680833262118466E
:10335C0004F0DCFE78617B69002200217868FFF7BD
:10336C005DFB20217868FFF783FB7B6803F1080283
:10337C00FB78012B01D1162300E0172319461046C8
:10338C0004F0C4FE786179697868FFF77FFB7B688D
:10339C0003F10802BB78002B01D01C2300E01B2397
:1033AC001946104604F0B2FE38613869FCF7C8FEC5
:1033BC000346C3F110035B08FB73F97B3B690122E5
:1033CC007868FFF72BFB00BF1837BD4680BD0000A7
:1033DC0080B58AB002AFF8607A601A460B46FB7271
:1033EC001346BB72FB680833FA7A1146184604F090
:1033FC008DFEB861BB6900220021F868FFF70EFB57
:10340C003149F868FFF742FBB869FCF799FE0346AF
:10341C00DBB20233FB75FB6803F10802BB7A03F0E5
:10342C000103002B01D0192300E01A231946104682
:10343C0004F06CFEB861B969F868FFF727FB5D21F1
:10344C00F868FFF715FBB869FCF77AFE0346DAB2A9
:10345C00FB7D1344DBB20133FB750023FB7706E0E5
:10346C002021F868FFF704FBFB7F0133FB77FA7F21
:10347C00FB7DC3F110039A42F2DB0023BB771BE008
:10348C00BB7F5B007A6813441B881AB207F11001EA
:10349C00002300930423F86800F080F9BB7F1A46E0
:1034AC0092001344D9B207F110030122F868FFF718
:1034BC00B5FABB7F0133BB77BB7F022BE0D900BFD2
:1034CC0000BF2037BD4680BD2CF3000880B588B006
:1034DC0002AFF860B96011461A460B46FB711346F1
:1034EC00BB71BB680233B3F90030794A82FB03121B
:1034FC009210DB17D31A1AB207F1100100230093B4
:10350C000323F86800F04AF907F1100300220021A8
:10351C00F868FFF783FABB680233B3F90030002B6D
:10352C000ADABB680233B3F900309BB25B429AB241
:10353C00BB68023312B21A80BB680233B3F90020A5
:10354C00634B83FB02139910D317C91A0B469B00CC
:10355C000B445B00D31A1AB207F11001012300933C
:10356C000223F86800F01AF907F110031946F868FD
:10357C00FFF78CFA0121F868FFF77AFABB6804337D
:10358C00B3F90030524A82FB03129210DB17D31AA4
:10359C001AB207F11001002300930223F86800F01F
:1035AC00FDF807F1100300220821F868FFF736FA3E
:1035BC00BB680433B3F90030002B0ADABB68043360
:1035CC00B3F900309BB25B429AB2BB68043312B2BF
:1035DC001A80BB680433B3F900203D4B83FB021304
:1035EC009910D317C91A0B469B000B445B00D31AD6
:1035FC001AB207F11001012300930223F86800F0BE
:10360C00CDF807F110031946F868FFF73FFA0121CE
:10361C00F868FFF72DFABB79002B04D001220F219B
:10362C00F86800F059F8BB68B3F9002007F11001F5
:10363C00002300930423F86800F0B0F897F82030CA
:10364C00012B01D1022300E0032301220021F868A1
:10365C00FFF7F7F907F1100301220121F868FFF7D2
:10366C00DDF92021F868FFF703FA97F82830002BD2
:10367C0001D02A2300E020231946F868FFF7F8F957
:10368C00BB680633B3F9002007F110010023009347
:10369C000323F86800F082F807F1100301220821D7
:1036AC00F868FFF7BBF90B49F868FFF7EFF997F8E3
:1036BC002430002B01D0052300E0202300220F2111
:1036CC00F868FFF7BEF900BF1837BD4680BD00BFD4
:1036DC006766666630F3000880B582B000AF78602C
:1036EC000B46FB701346BB70BA78FB7819467868AA
:1036FC00FFF764F97B6893F8B0305A1CD1B27A6842
:10370C0082F8B0101A467B68134493F8B13019460E
:10371C007868FFF7ADF97B6893F8B03003F00303DA
:10372C00DAB27B6883F8B02000BF0837BD4680BD95
:10373C0080B584B000AFF860B9607A60BB680022D5
:10374C000021F868FFF76AF97B6801220021F8680C
:10375C00FFF764F900BF1037BD4680BD80B584B05B
:10376C0000AF78600A4BFB60FB6800220021786890
:10377C00FFF754F907497868FFF788F9064B0122DF
:10378C0000217868FFF74AF900BF1037BD4680BDAD
:10379C0034F300083CF3000844F3000880B487B00D
:1037AC0000AFF860B96011461A460B46FB80134611
:1037BC007B710023FB75B7F90630002B08DA002368
:1037CC0087F820300123FB75FB885B429BB2FB80A2
:1037DC007B79013BBB75BB7D0133BA681344002276
:1037EC001A7000237B7532E0B7F906202F4B83FB50
:1037FC0002139910D317C91A0B469B000B445B009C
:10380C00D31A1BB2FB74BB7DBA681344FA7C3032FA
:10381C00D2B21A70B7F90630244A82FB0312921006
:10382C00DB17D31AFB80B7F90630002B06D197F8BB
:10383C00203083F00103DBB2002B0DD1BB7D002BBC
:10384C0002D0BB7D013BBB757B7D01337B757A7DE3
:10385C007B799A42C8D300E000BF97F82030002B48
:10386C0003D0BB682E221A701CE0FB7D002B0AD003
:10387C00BB7D002B02D0BB7D013BBB75BB7DBA6809
:10388C0013442D221A7000233B7507E03B7DBA6868
:10389C00134420221A703B7D01333B753A7DBB7D6E
:1038AC009A42F3D31C37BD4680BC70476766666688
:1038BC0080B485B000AF78607B6800221A707B689A
:1038CC0000225A807B6800229A807B6850229A8161
:1038DC007B684FF48052DA8140237B8110233B813B
:1038EC007B6801221A8100237B730DE07B681B89A6
:1038FC003A899A420CD97B681B895B009AB27B6827
:10390C001A817B7B01337B737B7B0B2BEED900E025
:10391C0000BF0123FB817B681B897A899A4209D3FA
:10392C007B897A6812891344013B7A68128993FB6C
:10393C00F2F3FB817B68FA89DA807B68DA897B6831
:10394C001B89B2FBF3F39AB27B68DB88D31A9AB269
:10395C007B685A817B6818461437BD4680BC70471B
:10396C002DE9F0438BB000AF78606B461E464FF0EC
:10397C00FF337B6200237B840023FB6100237B836A
:10398C0000233B837B689B895B0099B264230222F2
:10399C00544806F0D5FE0346002B14BF0123002328
:1039AC00DBB2002B05D07B6800221A707B681B7879
:1039BC0092E07B6801221A707B6819890B46013BE7
:1039CC003B618BB20022984691464FF000024FF0BB
:1039DC0000034FEAC90343EA58734FEAC8028BB29B
:1039EC0000221C4615464FF000024FF00003EB007E
:1039FC0043EA5473E2000B460733DB08DB00ADEB04
:103A0C00030D6B46FB607B68DB88FB8231E0FB8A35
:103A1C001A46F968786800F045F90346002B21D066
:103A2C00FB68BB600022B968786800F0ADF903460A
:103A3C00002B24D03B8B01333B83BB681B687A6A19
:103A4C009A4204D9BB681B687B62FB8A7B84BB6887
:103A5C001B68FA699A4209D2BB681B68FB61FB8A36
:103A6C007B8303E07B6800221A7009E0FB8A013338
:103A7C00FB827B685B89FA8A9A42C8D300E000BF5C
:103A8C003B8B002B0AD17B68DA887B685A807B6879
:103A9C005A887B689A807B681B781DE07B687A8BE0
:103AAC005A807B685B893A8B9A4210D27B685B8820
:103ABC0001339AB27B689A807B689A887B685B89B1
:103ACC009A4207D37B68DA887B689A8002E07B682D
:103ADC007A8C9A807B681B78B54618462C37BD4685
:103AEC00BDE8F0838405002080B582B000AF78601B
:103AFC0039607B685B881A463968786800F0D2F8C0
:103B0C000346002B06D000223968786800F03CF997
:103B1C00034600E0002318460837BD4680BD2DE95A
:103B2C00F04385B000AF786039606B461E467B6809
:103B3C001B7883F00103DBB2002B01D000235BE088
:103B4C003B681B685A1C3B681A600122396878680C
:103B5C0000F01AF97B6819890B46013BFB608BB2AC
:103B6C000022984691464FF000024FF000034FEAB6
:103B7C00C90343EA58734FEAC8028BB200221C46B1
:103B8C0015464FF000024FF00003EB0043EA54736C
:103B9C00E2000B460733DB08DB00ADEB030D6B4695
:103BAC00BB6010223968B8680AF0C0FE7B689B883D
:103BBC001A46B968786800F0ABF80346002B1AD0A7
:103BCC007B689A887B685A807B689B8801339AB2A1
:103BDC007B689A807B689A887B685B899A422CBF49
:103BEC0001230023DBB2002B03D07B68DA887B68CF
:103BFC009A80012300E00023B54618461437BD46D1
:103C0C00BDE8F08380B584B000AF78603960786827
:103C1C0000F094F90346FB7397F90F30002B07DB88
:103C2C00FB7B1A463968786800F0E6F8012300E05F
:103C3C00002318461037BD4680BD80B584B000AF58
:103C4C0078603960786800F079F90346FB81B7F940
:103C5C000E30012B04D0B7F90E30B3F1FF3F02D177
:103C6C000023FB8101E00123FB813B681B880133AE
:103C7C009AB23B681A8001223968786800F026F9FC
:103C8C00FB89DBB21A463968786800F0E7F803461E
:103C9C00002B01D0012300E0002318461037BD464D
:103CAC0080BD000080B58AB004AFF860B9601346DF
:103CBC00FB80FB685B89FA889A4201D3002320E0E1
:103CCC00FB681B89FA8802FB03F3FB82FB689B8968
:103CDC005B0099B2FB681B89FA8A642002900193FD
:103CEC00BB6800931023094806F0B6FA0346002B74
:103CFC000CBF01230023DBB2002B01D0012300E019
:103D0C00002318461837BD4680BD00BF840500202F
:103D1C0080B58AB004AFF860B9601346FB80FB68CD
:103D2C005B89FA889A4201D3002326E0FB681B8941
:103D3C00FA8802FB03F3FB82FB689B895B0099B258
:103D4C00FB681B89FA8A642002900193BB6800937C
:103D5C0010230C4806F086F90346002B0CBF0123F8
:103D6C000023DBB2002B04D0142005F063FB0123ED
:103D7C0003E0142005F05EFB002318461837BD46FF
:103D8C0080BD00BF8405002080B489B000AFF8600E
:103D9C00B9601346FB717523FB83BB689B887B83DF
:103DAC00BB6800229A80BB687B6100237B770DE0A7
:103DBC00FB8B5B00FB837B7F7A6913441B781A4671
:103DCC00FB8B1344FB837B7F01337B777B7F0F2B38
:103DDC00EED97A8BFB8B9A420CBF01230023FB7428
:103DEC00FB79002B02D0BB68FA8B9A80FB7C1846BF
:103DFC002437BD4680BC704780B58AB004AFF860EC
:103E0C00B9601346FB71FB7903F00103FB71FB797D
:103E1C00002B01D0202300E00023FB82FB689B8950
:103E2C005B0099B2FA8A6423029320230193BB6846
:103E3C0000931023084806F00FFA0346002B0CBF22
:103E4C0001230023DBB2002B01D0012300E000236F
:103E5C0018461837BD4680BD8405002080B58AB051
:103E6C0004AFF860B9601346FB71FB7903F00103F2
:103E7C00FB71FB79002B01D0202300E00023FB8297
:103E8C00FB689B895B0099B2FA8A64230293202316
:103E9C000193BB68009310230B4806F0E3F803462C
:103EAC00002B0CBF01230023DBB2002B04D0142009
:103EBC0005F0C0FA012303E0142005F0BBFA00233F
:103ECC0018461837BD4680BD8405002080B489B0E3
:103EDC0000AFF860B9601346FB717123FB83BB68BC
:103EEC005B887B83BB6800225A80BB687B610023A4
:103EFC007B770DE0FB8B5B00FB837B7F7A69134444
:103F0C001B781A46FB8B1344FB837B7F01337B7737
:103F1C007B7F1F2BEED97A8BFB8B9A420CBF012334
:103F2C000023FB74FB79002B02D0BB68FA8B5A8000
:103F3C00FB7C18462437BD4680BC704780B58EB0DC
:103F4C0000AF786000237B63002387F833300023B5
:103F5C0087F8323029E097F8322007F10C03194624
:103F6C007868FFF749FF0346002B19D007F10C03C3
:103F7C00002219467868FFF7A9FF0346002B0FD0E3
:103F8C0007F10C03FB62FB6A1B881A467B6B93429E
:103F9C0006D2FB6A1B887B6397F8323087F8333084
:103FAC0097F83230013387F8323097F83230012BE2
:103FBC00D1D97B6B002B02D097F9333001E04FF055
:103FCC00FF3318463837BD4680BD80B483B000AF90
:103FDC0078600B46FB707B68FA781A707B6800225D
:103FEC005A6000BF0C37BD4680BC704780B582B0AC
:103FFC0000AF786039607B6808211846FDF7E6FA57
:10400C007B6800221A817B6800225A817B6800221F
:10401C009A817B6800229A737B680022DA737B6832
:10402C0000221A747B6800225A827B6800229A82D2
:10403C007B6800229A757B680022DA757B68002207
:10404C009A617B680022DA617B6800221A627B68C5
:10405C0000225A627B6800221A857B6800225A85EE
:10406C007B680022DA627B68012283F830207B684F
:10407C00642283F831207B68322283F832207B68FB
:10408C00042283F833207B68142283F834207B6865
:10409C0040F2DC52DA867B684FF496721A877B68A2
:1040AC0040F6C4125A877B68322283F83C207B6826
:1040BC0000229A827B6848F201021A817B6847F6DB
:1040CC00FE725A817B680122DA737B6800229A7334
:1040DC007B680122DA737B683A681A627B6818463F
:1040EC000837BD4680BD80B584B000AFF860B960BC
:1040FC001346FB80FB6800229A61FB68BA685A621F
:10410C00FB68FA881A85FB685A8FFB689A81FA68F3
:10411C00FB6893F8333019461046FFF756FF00BF83
:10412C001037BD4680BD80B584B000AFF86008463E
:10413C0011461A4603467B810B463B811346FB8096
:10414C00FB683A891A81FB68FA885A81B7F90A30F8
:10415C001946F86800F0B3F9034683F00103DBB2AB
:10416C00002B06D0FB68B3F908301946F86800F04C
:10417C00A6F9FB683A7E1A74FB681A7CFB68DA7342
:10418C00FB68DB7B3A7F9A4202D9FB683A7F1A7450
:10419C00FB6897F820209A73FB6800225A8500BFB1
:1041AC001037BD4680BD80B586B000AF786005F095
:1041BC0037F938617B68DB6A7A6892F83C201344E3
:1041CC003A699A4203D27B68B3F91430B1E07B6848
:1041DC003A69DA627B681B6A1B685B6AFB810023A5
:1041EC00FB8200237B757B685B8AFA899A4215D91E
:1041FC00FB897A68528A9B1A47F6FE72934207DC57
:10420C0001237B757B685B8AFA89D31AFB821BE0DE
:10421C007B685A8AFB89D31AFB8215E07B685B8A20
:10422C001A46FB89D31A47F6FE72934205DC7B686B
:10423C005A8AFB89D31AFB8206E07B685B8AFA896F
:10424C00D31AFB8201237B75FB8A5B08FB82FB8AFA
:10425C00002B03D17B68B3F914306AE07B68DB7BFD
:10426C003B75FB8A012B09D97B681B7C002B02D088
:10427C007B681B7C01E0FB8ADBB23B75B7F916202F
:10428C007B685A857B6893F830307A7D9A420BD1E3
:10429C007B68B3F914309AB23B7D9BB213449BB24A
:1042AC001AB27B689A8213E07B68B3F914309AB225
:1042BC003B7D9BB2D31A9BB21AB27B689A827B6805
:1042CC00B3F92A309BB25B429BB21AB27B685A8517
:1042DC007B68B3F914207B68B3F90A309A420DDD80
:1042EC007B689B7B002B03D07B68B3F9083002E022
:1042FC007B68B3F90A307A68938214E07B68B3F96F
:10430C0014207B68B3F908309A420CDA7B689B7BEB
:10431C00002B03D07B68B3F90A3002E07B68B3F959
:10432C0008307A6893827B68FA895A827B68B3F981
:10433C00143018461837BD4680BD80B485B000AF28
:10434C0078607B685B8DFB817B6800225A85B7F9AE
:10435C000E3018461437BD4680BC704780B586B009
:10436C0000AF786005F05CF802467B68DB699A4226
:10437C002CBF01230023DBB2002B00F09B8005F047
:10438C004FF802467B6893F834301A447B68DA6144
:10439C000023FB757B685A6A7B681B8D1946104697
:1043AC0005F0ECFC0346002B0CBF01230023DBB211
:1043BC00002B04D07B6893F831305B00FB757B6875
:1043CC00DB7D002B14D07B68FA7D1146184604F077
:1043DC006EF802467B6893F832309A42B4BF0123E0
:1043EC000023DBB2002B17D07B680022DA7513E0B8
:1043FC007B68FA7D1146184604F059F802467B6832
:10440C0093F831309A42CCBF01230023DBB2002B4E
:10441C0002D07B680122DA757B68DB7D002B27D00C
:10442C0004F0FEFF02467B689B69D31AFB607B6835
:10443C009B69002B05D07B689B891A46FB689342CD
:10444C0005D904F0EDFF02467B689A6132E07B6887
:10445C00DB8E1A46FB6893422CD97B689B7D002B24
:10446C0001D0002327E07B6801229A75022322E009
:10447C007B689B69002B03D07B689B7D002B07D04E
:10448C007B6800229A617B6800229A75002312E0F7
:10449C0004F0C6FF02467B689B69D31A3B617B68BC
:1044AC0000229A617B689B891A463B69934201D230
:1044BC00012300E0002318461837BD4680BD80B4A8
:1044CC0083B000AF78600B467B807B68B3F9083013
:1044DC00B7F902209A420BDB7B68B3F90A30B7F9C3
:1044EC0002209A4204DC7B687A889A82012300E0DD
:1044FC00002318460C37BD4680BC704780B483B08F
:10450C0000AF78607B6893F82330022B09D07B686E
:10451C0093F82330012B04D07B6893F82330032BC2
:10452C0001D1012300E0002318460C37BD4680BCA6
:10453C00704780B483B000AF78607B681B8D1846E1
:10454C000C37BD4680BC704780B483B000AF786038
:10455C007B68B3F870309BB218460C37BD4680BCF4
:10456C00704780B483B000AF78607B6893F8733089
:10457C0018460C37BD4680BC704780B483B000AF82
:10458C0078607B6893F82330002B0CBF0123002349
:10459C00DBB218460C37BD4680BC704780B582B084
:1045AC0000AF78607B685433184603F0BAFF0346BB
:1045BC009BB218460837BD4680BD80B582B000AFAF
:1045CC0078607B685C33184603F0ABFF03469BB204
:1045DC0018460837BD4680BD80B582B000AF786004
:1045EC000B467B807B88074A12880021184604F012
:1045FC004BFB03469AB27B681A8500BF0837BD4651
:10460C0080BD00BF3CF5000880B582B000AF78607B
:10461C007B681B6820331B687868984703461846EC
:10462C000837BD4680BD80B582B000AF78607B682E
:10463C00B3F870309AB27B689A8604F0F1FE0246A9
:10464C007B689A6300BF0837BD4680BD80B582B0D9
:10465C0000AF78600B467B8013463B807B68002262
:10466C0083F823207B6800225A857B68002283F81C
:10467C0024207B68002283F86C207B68002283F85E
:10468C0025207A887B68A3F842202C4B1A887B68FB
:10469C00A3F86E20B7F900307A68B2F86E20934216
:1046AC0003DD3A887B68A3F86E200021786800F05F
:1046BC00DFFC7B6803F144027B6893F88130194678
:1046CC001046FFF782FC7B68443300211846FCF748
:1046DC0095FF7B6803F14C027B6893F88130194697
:1046EC001046FFF772FC7B684C3300211846FCF730
:1046FC0085FF7B6803F154027B6893F8813019467F
:10470C001046FFF762FC7B6803F15C027B6893F850
:10471C00813019461046FFF758FC7B6804330022A1
:10472C000D21184603F090FD7B68043300211846D8
:10473C0003F0ADFD00BF0837BD4680BD46F500084F
:10474C0080B586B002AF78600023FB737B6893F86A
:10475C002330032B10D17B6893F8243018467B68E8
:10476C0093F873301A46642300930023002104F05D
:10477C0065FA0346FB7310E07B684433184603F07C
:10478C00D0FE7B6893F874301A46642300930023A0
:10479C00002104F053FA0346FB73FB7B642B01D915
:1047AC006423FB73FB7B18461037BD4680BD0000AD
:1047BC0080B582B000AF7860074B1B685B6B40F232
:1047CC00CF720021184604F05FFA03469BB21846DC
:1047DC000837BD4680BD00BF7806002080B586B086
:1047EC0002AF78607868FFF7E3FF0346FB81FB8933
:1047FC00002B02D17B685B8DFB81F8897B68B3F859
:10480C0040301A46642300930023002104F016FA6A
:10481C000346DBB218461037BD4680BD80B582B06A
:10482C0000AF78600B467B8078887B68B3F84030AB
:10483C001A46002104F028FA0246034B1B685A63FF
:10484C0000BF0837BD4680BD7806002080B584B017
:10485C0000AF78600B467B807B6893F83C30002B74
:10486C0019D07B687A88A3F842207B684C337A880D
:10487C001146184603F01BFEF8607B88FA68D31AC1
:10488C00BB607B6803F15C02BB6803FB03F3194656
:10489C00104603F027FE00BF1037BD4680BD000058
:1048AC0080B582B000AF78600B46FB707B6800224D
:1048BC001A637B6893F82330052B00F2678101A201
:1048CC0052F823F0E9480008C7490008C749000816
:1048DC00154A0008C7490008CB4A00087868FFF75A
:1048EC0067FF0346002B0CBF01230023DBB2002B18
:1048FC000BD0FB78002B00F04B817B68012283F8F6
:10490C0023207B6800229A6342E1FB78002B28D09D
:10491C007B6893F83C30002B1FD00121786800F0A5
:10492C00A7FB7B68B3F842207B681B8D9A420CD2A4
:10493C007B68B3F84230C8337A68128D934204DA3C
:10494C007B68012283F8232003E07B68022283F832
:10495C0023207B6800229A631AE1786800F06AFBD6
:10496C0016E17B6893F83C30002B00F011817B68DA
:10497C00B3F870309AB27B68B3F86E309A4234BF99
:10498C0001230023DBB2002B03D0786800F052FB2C
:10499C00FEE07B68052283F8232004F041FD0246EB
:1049AC007B689B6F1A447B681A637B68002283F8D0
:1049BC0026207868FFF737FEEAE0FB7883F00103E6
:1049CC00DBB2002B00F0E6807B68052283F8232005
:1049DC0004F026FD02467B689B6F1A447B681A63C1
:1049EC007B68002283F826207868FFF71CFE7B6822
:1049FC0093F82730002B00F0CD807B68B3F8402073
:104A0C006F4B1B685A63C5E07868FFF7D1FE03460D
:104A1C00002B14BF01230023DBB2002B45D0FB7805
:104A2C00002B07D07B68022283F823207B680022AE
:104A3C009A63B1E07B6893F83C30002B31D07B68F3
:104A4C00B3F870309AB27B68B3F86E309A4234BFC8
:104A5C0001230023DBB2002B03D0786800F0EAFAC4
:104A6C009AE07B68052283F8232004F0D9FC0246E7
:104A7C007B689B6F1A447B681A637B68002283F8FF
:104A8C0026207868FFF7CFFD7B6893F82730002B42
:104A9C0000F082807B68B3F84020494B1B685A6356
:104AAC007AE0786800F0C6FA76E0FB7883F00103D0
:104ABC00DBB2002B70D0786800F0BCFA6CE0786840
:104ACC00FFF776FE0346002B14BF01230023DBB255
:104ADC00002B4FD0FB78002B28D07B6893F83C3010
:104AEC00002B1FD00121786800F0C2FA7B68B3F864
:104AFC0042207B681B8D9A420CD27B68B3F8423003
:104B0C00C8337A68128D934204DA7B68012283F8E9
:104B1C00232003E07B68022283F823207B68002299
:104B2C009A633BE0786800F085FA37E07B6893F88D
:104B3C003C30002B1AD07B68B3F870309AB27B688B
:104B4C00B3F86E309A4234BF01230023DBB2002B42
:104B5C0024D004F065FC02467B68DB6F1A447B684A
:104B6C001A637B68012283F8262017E0786800F02E
:104B7C0061FA13E0FB78002B10D00121786800F06B
:104B8C0077FA7B68012283F8232007E000BF06E058
:104B9C0000BF04E000BF02E000BF00E000BF7B6884
:104BAC00443300211846FCF729FD7B68543300215F
:104BBC001846FCF723FD00BF0837BD4680BD00BF7B
:104BCC007806002080B582B000AF78600B467B8001
:104BDC007B88002B07D17B681B6810331B68002176
:104BEC007868984717E07B6893F874301A467B888E
:104BFC00934203D97B6893F874307B807B680322E3
:104C0C0083F823200121786800F032FA7B88DAB22D
:104C1C007B6883F824200837BD4680BD90B589B0E9
:104C2C0002AF78607B684C33184603F07AFC03467D
:104C3C009AB27B68A3F87020984B1B8863337A6810
:104C4C00B2F84220934209DB7B68B3F842301A4633
:104C5C007B681B8D03F5C8739A4208DD7B6893F85B
:104C6C002330022B03D17B68012283F825200023FB
:104C7C007B617B6893F82330052B00F2968101A2AF
:104C8C0052F823F0B74F0008A94C0008D74C000885
:104C9C00AB4D0008E94D0008534E00087B6893F8B3
:104CAC006C3083F00103DBB2002B0ED07B6893F8E1
:104CBC003C30002B09D00121786800F0D9F97B68D1
:104CCC0004330021184603F0E2FA7B685A8D744BCA
:104CDC001B685A637B6893F82530002B13D07B68D4
:104CEC00B3F842301A467B681B8D023B9A4280F225
:104CFC005E817B68002283F825207B6804330021C9
:104D0C00184603F0C4FA7B6893F82330012B0AD1C0
:104D1C007B68B3F842207B681B8D9A4203D37B6877
:104D2C00022283F823207B6893F86C30002B00F070
:104D3C0040817B6893F87230DBB2002B14BF0123E7
:104D4C000023DBB2002B13D07B6893F87230DBB2FC
:104D5C00013BDAB27B6883F872207B6893F872307F
:104D6C00DBB203F00703DAB27B6883F8722020E130
:104D7C007B68181D7B681B8D19B27B68B3F84230B9
:104D8C001BB21A4603F0CBFA78617B6893F8743047
:104D9C001A460021786903F077FF786109E17B6896
:104DAC0093F87230DBB2002B14BF01230023DBB26B
:104DBC00002B09D07B6893F87230DBB2013BDAB27E
:104DCC007B6883F8722003E07B6893F824307B6166
:104DDC007B685A8D324B1B685A63EFE07B68DA8F25
:104DEC002F4B1B685A637B6893F82530002B13D02C
:104DFC007B68B3F842301A467B689B8D023B9A4223
:104E0C0080F2D9807B68002283F825207B680433EC
:104E1C000021184603F03BFA7B68181D7B689B8DBC
:104E2C0019B27B68B3F842301BB21A4603F077FA1A
:104E3C0078617B6893F874301A460021786903F026
:104E4C0023FF7861BAE07868FFF7B2FC03461A4694
:104E5C007B68DB8F9A4234BF01230023DBB2002B2B
:104E6C0003D0786800F0E6F8A7E07B6893F83C3054
:104E7C00002B00F083807B68B3F870309AB27B68AB
:104E8C00B3F86E309A4234BF01230023DBB2002BFF
:104E9C0008D0786800F0CEF890E000BF3CF5000830
:104EAC00780600207B68B3F870309AB27B689B8ED2
:104EBC009A4234BF01230023DBB2002B02D0786866
:104ECC00FFF7B1FB7B689B6B002B0CD004F0A8FAAE
:104EDC0001467B689A6B7B68D3F8883013449942FF
:104EEC0001D3012300E00023002B1AD07B6893F838
:104EFC00263083F00103DBB2002B42D07B68012209
:104F0C0083F8262004F08CFA02467B68DB6F1A4487
:104F1C007B681A637B68B3F84020454B1B685A6367
:104F2C002FE07B6893F8273083F00103DBB2002B72
:104F3C0027D07B6893F8263083F00103DBB2002B7B
:104F4C001FD07B68B3F870309BB218467B68B3F8FF
:104F5C006E3019467B681B8D1A467B68B3F840305F
:104F6C001C467B68DB8F0093234603F067FE0346E9
:104F7C007B822F4B1B687A8A5A6302E0786800F0B8
:104F8C0059F87B681B6B002B08D004F049FA0246D9
:104F9C007B681B6B9A4201D3012300E00023002B9A
:104FAC000BD0786800F046F807E000BF06E000BFC1
:104FBC0004E000BF02E000BF00E000BF7868FFF72C
:104FCC00F7FB03461A467B68DB8F9A4207D37B6854
:104FDC0093F83C3083F00103DBB2002B01D00123AA
:104FEC0000E00023002B01D000237B617B6844335D
:104FFC007969184603F076FA7B6844337969184668
:10500C0003F055FAF860FA687B69D31ABB607B68C9
:10501C0003F15402BB6803FB03F31946104603F07B
:10502C0061FA7B699BB218461C37BD4690BD00BF28
:10503C007806002080B582B000AF78607B680022D3
:10504C0083F82320094B1B6800225A6300217868DF
:10505C0000F00EF87B6800221A637B68012283F84B
:10506C00262000BF0837BD4680BD00BF7806002053
:10507C0080B582B000AF78600B46FB70FB78002BDC
:10508C000DD001224FF400610E4804F08EFE7B68B7
:10509C00D3F88430DAB27B6883F8722009E00022FE
:1050AC004FF40061074804F080FE7B68002283F80F
:1050BC0072207B68FA7883F86C2000BF0837BD46F5
:1050CC0080BD00BF0008014080B483B000AF7860A1
:1050DC000B467B8013463B807B687A88DA877B683B
:1050EC003A88A3F8402000BF0C37BD4680BC7047FF
:1050FC0080B483B000AF78600B467B80B7F9023088
:10510C007A68B2F86E20934203DD7A887B68A3F844
:10511C006E2000BF0C37BD4680BC704780B483B096
:10512C0000AF78607B689B8B03F00403002B14BFEB
:10513C0001230023DBB218460C37BD4680BC7047F8
:10514C0080B483B000AF78607B689B8B03F0100356
:10515C00002B14BF01230023DBB218460C37BD46CD
:10516C0080BC704780B483B000AF78600B46FB7096
:10517C007B68FA7883F8272000BF0C37BD4680BCCB
:10518C00704780B483B000AF78607B68B3F90230AD
:10519C0018460C37BD4680BC704780B582B000AF56
:1051AC0078607B681B6A3C21184607F04DFD00BFF8
:1051BC000837BD4680BD80B483B000AF78600B4625
:1051CC00FB707B68FA7883F8302000BF0C37BD4643
:1051DC0080BC704790B58DB000AF78607B6803F5EC
:1051EC0027707B6893F8AE127B6893F8AC321A4642
:1051FC007B6893F8AD3203F0ABF97B6803F5AA73C7
:10520C001846FDF7DDFC7B6803F516731846FFF7AF
:10521C00C4FF7B6803F51673402256491846FEF707
:10522C0062FF7B6803F511731846FCF772FC0346AA
:10523C001A467B6883F848227B6893F84832002B27
:10524C0005D104F0EDF802467B68C3F84C227B686C
:10525C0003F511731846FCF76CFC0346FB857B6861
:10526C0003F511731846FFF78CFF0346BB857B686B
:10527C001846FFF765FF034687F82B307B68C83369
:10528C00B7F92C20B7F92E101846FFF7DFF97B6819
:10529C00C83397F82B2011461846FFF763FF7B683D
:1052AC006C33B7F92E201146184603F0B0FD7B681D
:1052BC001846FBF7ADFB034687F82A30796807F1EF
:1052CC000C0300221846FBF7FBFE7B68703307F1DA
:1052DC000C021146184602F087FF796807F1180393
:1052EC0001221846FBF7ECFE07F1180207F10C033C
:1052FC0007CA83E807007B68CC3307F10C02114620
:10530C00184602F071FF7B681846FBF7C8FB034692
:10531C003B857B681846FBF7D8FB0346FB847B6810
:10532C00C833FA8C398D1846FFF7CEFE7B6803F52F
:10533C0016747B681846FFF7F1FE034619462046A3
:10534C00FFF739FF97F82A30002B0ED07B681846F0
:10535C00FBF766FD034687F8253097F8253019468C
:10536C00786800F009F8002300E001231846343770
:10537C00BD4690BD000C014080B483B000AF786096
:10538C000B46FB70FB78012B04D1074B1B680222E8
:10539C009A6203E0044B1B6863229A6200BF0C37CD
:1053AC00BD4680BC704700BF7806002080B500AFBA
:1053BC0003F0DEFF00F015F800F002FB00F0E2FA5B
:1053CC0000F0B8F800F080F800F092F900F010FA54
:1053DC0000F04CF800F060FAFCF754FEFCF7D2FE3B
:1053EC00FCE780B590B000AF07F11803282200212C
:1053FC00184609F043FA3B1D00221A605A609A6065
:10540C00DA601A610123BB614FF48033FB61002326
:10541C003B620123BB6202237B634FF48033BB638B
:10542C004FF4E013FB6307F11803184605F06AFE0E
:10543C000346002B01D000F031FB0F237B600223CD
:10544C00BB600023FB604FF480633B6100237B61F6
:10545C003B1D0221184606F0D7F80346002B01D05D
:10546C0000F01CFB00BF4037BD4680BD80B500AFCF
:10547C00124B134A1A60114B124A5A600F4B0022FE
:10548C009A600E4B0022DA600C4B4FF480421A618A
:10549C000A4B00225A61094B00229A61074B0022E9
:1054AC00DA61064B00221A62044804F097FC0346AA
:1054BC00002B01D000F0F2FA00BF80BD8405002063
:1054CC0000540040A086010080B500AF174B184A6D
:1054DC001A60164B4FF482725A60144B00229A6079
:1054EC00124B0022DA60114B00221A610F4B002282
:1054FC005A610E4B4FF400729A610C4B2022DA6108
:10550C000A4B00221A62094B00225A62074B0022F6
:10551C009A62064B0A22DA62044806F0EFF9034657
:10552C00002B01D000F0BAFA00BF80BDD8050020D6
:10553C000038004080B59EB000AF07F16803002230
:10554C001A605A609A60DA6007F1540300221A60FC
:10555C005A609A60DA601A6107F14C0300221A60F3
:10556C005A6007F13C0300221A605A609A60DA60B4
:10557C0007F1200300221A605A609A60DA601A61FF
:10558C005A619A613B4620220021184609F076F9AF
:10559C00554B564A1A60544B41F61F425A60524BB7
:1055AC0000229A60504BFF22DA604F4B00221A61A6
:1055BC004D4B00225A614C4B00229A614A4806F02E
:1055CC00EEFD0346002B01D000F068FA4FF4805337
:1055DC00BB6607F168031946434807F011FE034602
:1055EC00002B01D000F05AFA3F4807F027F9034688
:1055FC00002B01D000F052FA3B4806F01FFE034688
:10560C00002B01D000F04AFA04237B655023BB65C4
:10561C000023FB6500237B6607F1540319463248CF
:10562C0007F0B5FE0346002B01D000F037FA00233B
:10563C00FB6400233B6507F14C0319462A4808F02C
:10564C002DFC0346002B01D000F028FA0023FB634D
:10565C0001233B6400237B640723BB6407F13C03F9
:10566C0000221946204807F06DFC0346002B01D0A0
:10567C0000F014FA60233B6200237B620023BB62C0
:10568C000023FB6200233B6300237B630023BB638B
:10569C0007F1200304221946134807F0EFFC0346D8
:1056AC00002B01D000F0FAF900233B6000237B6053
:1056BC000023BB600023FB6000233B614FF40053CD
:1056CC007B610023FB613B461946074808F044FC0C
:1056DC000346002B01D000F0E1F9034803F068F910
:1056EC0000BF7837BD4680BD30060020002C01403D
:1056FC0080B58EB000AF07F1280300221A605A6003
:10570C009A60DA6007F1200300221A605A603B1D90
:10571C0000221A605A609A60DA601A615A619A61C2
:10572C00324B4FF080421A60304B63225A602F4B41
:10573C0000229A602D4B40F2CF72DA602B4B002284
:10574C001A612A4B00229A61284806F028FD03466C
:10575C00002B01D000F0A2F94FF48053BB6207F18B
:10576C0028031946214807F04BFD0346002B01D0B6
:10577C0000F094F91D4806F061FD0346002B01D0A2
:10578C0000F08CF900233B6200237B6207F12003BD
:10579C001946164808F082FB0346002B01D000F096
:1057AC007DF960237B600023BB600023FB6000233A
:1057BC007B613B1D002219460C4807F05FFC034639
:1057CC00002B01D000F06AF93B1D0822194607484E
:1057DC0007F054FC0346002B01D000F05FF903489E
:1057EC0003F0E6F800BF3837BD4680BD78060020D0
:1057FC0080B58CB000AF07F10C03242200211846B1
:10580C0009F03CF83B1D00221A605A60204B214ADB
:10581C001A601F4B00225A601D4B00229A601C4BD1
:10582C004FF6FF72DA601A4B00221A61184B0022F5
:10583C009A610123FB6000233B6101237B61002300
:10584C00BB610023FB6100233B6201237B620023CD
:10585C00BB620023FB6207F10C0319460C4807F0EE
:10586C0051F90346002B01D000F018F900237B609E
:10587C000023BB603B1D1946054808F00FFB03468F
:10588C00002B01D000F00AF900BF3037BD4680BDB7
:10589C00C00600200004004080B58EB000AF07F1B8
:1058AC00280300221A605A609A60DA6007F120031C
:1058BC0000221A605A603B1D00221A605A609A60DE
:1058CC00DA601A615A619A612C4B2D4A1A602B4B83
:1058DC0000225A60294B00229A60284B4FF6FF7227
:1058EC00DA60264B00221A61244B00229A6123486D
:1058FC0006F055FC0346002B01D000F0CFF84FF416
:10590C008053BB6207F1280319461C4807F078FC4A
:10591C000346002B01D000F0C1F8184806F08EFCAD
:10592C000346002B01D000F0B9F800233B620023A2
:10593C007B6207F120031946104808F0AFFA0346C2
:10594C00002B01D000F0AAF860237B600023BB6021
:10595C000023FB6000237B613B1D04221946074892
:10596C0007F08CFB0346002B01D000F097F803489E
:10597C0003F01EF800BF3837BD4680BD0807002075
:10598C000008004080B582B000AF0C4B5B690B4A3D
:10599C0043F001035361094B5B6903F001037B6026
:1059AC007B68002200210D2003F03FFE0D2003F048
:1059BC0058FE00BF0837BD4680BD00BF0010024036
:1059CC0080B588B000AF07F1100300221A605A604E
:1059DC009A60DA602E4B9B692D4A43F02003936149
:1059EC002B4B9B6903F02003FB60FB68284B9B69E6
:1059FC00274A43F004039361254B9B6903F004038E
:105A0C00BB60BB68224B9B69214A43F0080393613E
:105A1C001F4B9B6903F008037B607B68002240F6F8
:105A2C007E011C4804F0C1F901224FF480511A4840
:105A3C0004F0BBF940F67E033B6101237B6100233C
:105A4C00BB610223FB6107F110031946114804F0F6
:105A5C0011F842233B6100237B610023BB6107F1FA
:105A6C00100319460C4804F005F84FF480533B61C1
:105A7C0001237B610023BB610223FB6107F110034F
:105A8C001946054803F0F6FF00BF2037BD4680BD20
:105A9C000010024000080140000C014080B400AF2F
:105AAC0072B600BF00BFFDE780B483B000AF786072
:105ABC007B685B7A18460C37BD4680BC704780B556
:105ACC0082B000AF786039603B6899683B68DA68EF
